{"abi":[{"type":"function","name":"MAX_SUPPLY","inputs":[],"outputs":[{"name":"","type":"uint256","internalType":"uint256"}],"stateMutability":"view"},{"type":"function","name":"approve","inputs":[{"name":"to","type":"address","internalType":"address"},{"name":"tokenId","type":"uint256","internalType":"uint256"}],"outputs":[],"stateMutability":"nonpayable"},{"type":"function","name":"balanceOf","inputs":[{"name":"","type":"address","internalType":"address"}],"outputs":[{"name":"","type":"uint256","internalType":"uint256"}],"stateMutability":"view"},{"type":"function","name":"getApproved","inputs":[{"name":"","type":"uint256","internalType":"uint256"}],"outputs":[{"name":"","type":"address","internalType":"address"}],"stateMutability":"view"},{"type":"function","name":"isApprovedForAll","inputs":[{"name":"","type":"address","internalType":"address"},{"name":"","type":"address","internalType":"address"}],"outputs":[{"name":"","type":"bool","internalType":"bool"}],"stateMutability":"view"},{"type":"function","name":"mint","inputs":[],"outputs":[{"name":"tokenId","type":"uint256","internalType":"uint256"}],"stateMutability":"nonpayable"},{"type":"function","name":"name","inputs":[],"outputs":[{"name":"","type":"string","internalType":"string"}],"stateMutability":"view"},{"type":"function","name":"ownerOf","inputs":[{"name":"","type":"uint256","internalType":"uint256"}],"outputs":[{"name":"","type":"address","internalType":"address"}],"stateMutability":"view"},{"type":"function","name":"safeTransferFrom","inputs":[{"name":"from","type":"address","internalType":"address"},{"name":"to","type":"address","internalType":"address"},{"name":"tokenId","type":"uint256","internalType":"uint256"}],"outputs":[],"stateMutability":"nonpayable"},{"type":"function","name":"safeTransferFrom","inputs":[{"name":"from","type":"address","internalType":"address"},{"name":"to","type":"address","internalType":"address"},{"name":"tokenId","type":"uint256","internalType":"uint256"},{"name":"","type":"bytes","internalType":"bytes"}],"outputs":[],"stateMutability":"nonpayable"},{"type":"function","name":"setApprovalForAll","inputs":[{"name":"operator","type":"address","internalType":"address"},{"name":"approved","type":"bool","internalType":"bool"}],"outputs":[],"stateMutability":"nonpayable"},{"type":"function","name":"supportsInterface","inputs":[{"name":"interfaceId","type":"bytes4","internalType":"bytes4"}],"outputs":[{"name":"","type":"bool","internalType":"bool"}],"stateMutability":"pure"},{"type":"function","name":"symbol","inputs":[],"outputs":[{"name":"","type":"string","internalType":"string"}],"stateMutability":"view"},{"type":"function","name":"tokenURI","inputs":[{"name":"tokenId","type":"uint256","internalType":"uint256"}],"outputs":[{"name":"","type":"string","internalType":"string"}],"stateMutability":"view"},{"type":"function","name":"totalSupply","inputs":[],"outputs":[{"name":"","type":"uint256","internalType":"uint256"}],"stateMutability":"view"},{"type":"function","name":"transferFrom","inputs":[{"name":"from","type":"address","internalType":"address"},{"name":"to","type":"address","internalType":"address"},{"name":"tokenId","type":"uint256","internalType":"uint256"}],"outputs":[],"stateMutability":"nonpayable"},{"type":"event","name":"Approval","inputs":[{"name":"owner","type":"address","indexed":true,"internalType":"address"},{"name":"approved","type":"address","indexed":true,"internalType":"address"},{"name":"tokenId","type":"uint256","indexed":true,"internalType":"uint256"}],"anonymous":false},{"type":"event","name":"ApprovalForAll","inputs":[{"name":"owner","type":"address","indexed":true,"internalType":"address"},{"name":"operator","type":"address","indexed":true,"internalType":"address"},{"name":"approved","type":"bool","indexed":false,"internalType":"bool"}],"anonymous":false},{"type":"event","name":"Transfer","inputs":[{"name":"from","type":"address","indexed":true,"internalType":"address"},{"name":"to","type":"address","indexed":true,"internalType":"address"},{"name":"tokenId","type":"uint256","indexed":true,"internalType":"uint256"}],"anonymous":false},{"type":"error","name":"AlreadyMinted","inputs":[]},{"type":"error","name":"InvalidToken","inputs":[]},{"type":"error","name":"MintClosed","inputs":[]},{"type":"error","name":"NotApproved","inputs":[]},{"type":"error","name":"NotOwner","inputs":[]},{"type":"error","name":"TransferToZero","inputs":[]}],"bytecode":{"object":"0x60806040526040518061014001604052806040518060600160405280602e8152602001614270602e9139815260200160405180606001604052806037815260200161429e6037913981526020016040518060600160405280602e8152602001614242602e913981526020016040518060600160405280602581526020016143256025913981526020016040518060600160405280602981526020016142fc6029913981526020016040518060400160405280601581526020017f52455455524e20544f2057494c44204e4154555245000000000000000000000081525081526020016040518060600160405280602781526020016142d56027913981526020016040518060400160405280601e81526020017f544845204d414348494e452043414e4e4f54204245205245464f524d4544000081525081526020016040518060400160405280601c81526020017f52454a4543542054484520494e445553545249414c2053595354454d00000000815250815260200160405180606001604052806024815260200161434a602491398152506005908161019f91906107f5565b503480156101ab575f5ffd5b50610857565b5f819050919050565b7f4e487b71000000000000000000000000000000000000000000000000000000005f52604160045260245ffd5b5f600a9050919050565b5f819050919050565b5f8190506001806001038301049050919050565b5f819050919050565b7f4e487b71000000000000000000000000000000000000000000000000000000005f52602260045260245ffd5b5f600282049050600182168061025b57607f821691505b60208210810361026e5761026d610217565b5b50919050565b5f819050815f5260205f209050919050565b5f82821c905092915050565b6102c27fffffffffffffffffffffffffffffffffffffffffffffffffffffffffffffffff83602003600802610286565b815481168255505050565b5f82821b905092915050565b5f600883026103087fffffffffffffffffffffffffffffffffffffffffffffffffffffffffffffffff826102cd565b61031286836102cd565b95508019841693508086168417925050509392505050565b5f819050919050565b5f61034d610348610343846101f1565b61032a565b6101f1565b9050919050565b5f819050919050565b61036683610333565b61037a61037282610354565b8484546102d9565b825550505050565b5f5f905090565b610391610382565b61039c81848461035d565b505050565b5f5b828110156103c2576103b75f828401610389565b6001810190506103a3565b505050565b5f6103d65f1984600802610286565b1980831691505092915050565b5f6103ee83836103c7565b9150826002028217905092915050565b61040781610274565b6104128382546103e3565b8083555f825550505050565b5f6020601f8301049050919050565b602084105f811461048857601f8411600181146104555761044e86856103e3565b8355610482565b61045e83610274565b610476600161046c8861041e565b03600183016103a1565b61048087856103fe565b505b506104e2565b6104918561041e565b61049a8561041e565b6104a384610274565b828101601f891680156104be576104bd8160018403610292565b5b848411156104d3576104d2858503836103a1565b5b60018a60020217875550505050505b5050505050565b68010000000000000000841115610503576105026101ba565b5b602083105f811461054c57602085105f811461052a5761052386856103e3565b8355610546565b8360ff191693508361053b84610274565b556001866002020183555b50610556565b6001856002020182555b5050505050565b805461056881610244565b8084111561057d5761057c848284866104e9565b5b80841015610592576105918482848661042d565b5b50505050565b828110156105b7576105ac5f828401610389565b600181019050610598565b505050565b6105c65f8261055d565b50565b7f4e487b71000000000000000000000000000000000000000000000000000000005f525f60045260245ffd5b5f8214610605576106046105c9565b5b61060e816105bc565b5050565b5f5b82811015610633576106285f8284016105f5565b600181019050610614565b505050565b8183101561066f57610649826101fa565b610652846101fa565b61065b8361020e565b81810161066a83850382610612565b505050505b505050565b6801000000000000000082111561068e5761068d6101ba565b5b610697816101e7565b6106a2838284610638565b505050565b5f600a9050919050565b5f81519050919050565b5f81519050919050565b601f8211156107135782821115610712576106df81610274565b6106e88361041e565b6106f18561041e565b60208610156106fe575f90505b80830161070d828403826103a1565b505050505b5b505050565b610721826106bb565b67ffffffffffffffff81111561073a576107396101ba565b5b6107448254610244565b61074f8282856106c5565b5f60209050601f831160018114610780575f841561076e578287015190505b61077885826103e3565b8655506107df565b601f19841661078e86610274565b5f5b828110156107b557848901518255600182019150602085019450602081019050610790565b868310156107d257848901516107ce601f8916826103c7565b8355505b6001600288020188555050505b505050505050565b6107f18282610718565b5050565b6107fe826106a7565b6108088183610674565b610811836101b1565b61081a8361020e565b5f5b8381101561084f5761082d836106b1565b61083781846107e7565b6020840193506001830192505060018101905061081c565b505050505050565b6139de806108645f395ff3fe608060405234801561000f575f5ffd5b50600436106100fe575f3560e01c806342842e0e11610095578063a22cb46511610064578063a22cb465146102ac578063b88d4fde146102c8578063c87b56dd146102e4578063e985e9c514610314576100fe565b806342842e0e146102125780636352211e1461022e57806370a082311461025e57806395d89b411461028e576100fe565b80631249c58b116100d15780631249c58b1461019c57806318160ddd146101ba57806323b872dd146101d857806332cb6b0c146101f4576100fe565b806301ffc9a71461010257806306fdde0314610132578063081812fc14610150578063095ea7b314610180575b5f5ffd5b61011c60048036038101906101179190611769565b610344565b60405161012991906117ae565b60405180910390f35b61013a6103d5565b6040516101479190611837565b60405180910390f35b61016a6004803603810190610165919061188a565b61040e565b60405161017791906118f4565b60405180910390f35b61019a60048036038101906101959190611937565b61043e565b005b6101a4610616565b6040516101b19190611984565b60405180910390f35b6101c261076c565b6040516101cf9190611984565b60405180910390f35b6101f260048036038101906101ed919061199d565b610771565b005b6101fc610b53565b6040516102099190611984565b60405180910390f35b61022c6004803603810190610227919061199d565b610b59565b005b6102486004803603810190610243919061188a565b610b69565b60405161025591906118f4565b60405180910390f35b610278600480360381019061027391906119ed565b610b99565b6040516102859190611984565b60405180910390f35b610296610bae565b6040516102a39190611837565b60405180910390f35b6102c660048036038101906102c19190611a42565b610be7565b005b6102e260048036038101906102dd9190611ae1565b610cdf565b005b6102fe60048036038101906102f9919061188a565b610cf1565b60405161030b9190611837565b60405180910390f35b61032e60048036038101906103299190611b65565b610dd2565b60405161033b91906117ae565b60405180910390f35b5f6380ac58cd60e01b827bffffffffffffffffffffffffffffffffffffffffffffffffffffffff1916148061039e5750635b5e139f60e01b827bffffffffffffffffffffffffffffffffffffffffffffffffffffffff1916145b806103ce57506301ffc9a760e01b827bffffffffffffffffffffffffffffffffffffffffffffffffffffffff1916145b9050919050565b6040518060400160405280601181526020017f496e647573747269616c204f757470757400000000000000000000000000000081525081565b6003602052805f5260405f205f915054906101000a900473ffffffffffffffffffffffffffffffffffffffff1681565b5f60015f8381526020019081526020015f205f9054906101000a900473ffffffffffffffffffffffffffffffffffffffff1690508073ffffffffffffffffffffffffffffffffffffffff163373ffffffffffffffffffffffffffffffffffffffff1614158015610530575060045f8273ffffffffffffffffffffffffffffffffffffffff1673ffffffffffffffffffffffffffffffffffffffff1681526020019081526020015f205f3373ffffffffffffffffffffffffffffffffffffffff1673ffffffffffffffffffffffffffffffffffffffff1681526020019081526020015f205f9054906101000a900460ff16155b15610567576040517fc19f17a900000000000000000000000000000000000000000000000000000000815260040160405180910390fd5b8260035f8481526020019081526020015f205f6101000a81548173ffffffffffffffffffffffffffffffffffffffff021916908373ffffffffffffffffffffffffffffffffffffffff160217905550818373ffffffffffffffffffffffffffffffffffffffff168273ffffffffffffffffffffffffffffffffffffffff167f8c5be1e5ebec7d5bd14f71427d1e84f3dd0314c0f7b2291e5b200ac8c7c3b92560405160405180910390a4505050565b5f6103e85f5410610653576040517f589ed34b00000000000000000000000000000000000000000000000000000000815260040160405180910390fd5b5f5490505f5f81548092919061066890611bd0565b91905055503360015f8381526020019081526020015f205f6101000a81548173ffffffffffffffffffffffffffffffffffffffff021916908373ffffffffffffffffffffffffffffffffffffffff16021790555060025f3373ffffffffffffffffffffffffffffffffffffffff1673ffffffffffffffffffffffffffffffffffffffff1681526020019081526020015f205f81548092919061070990611bd0565b9190505550803373ffffffffffffffffffffffffffffffffffffffff165f73ffffffffffffffffffffffffffffffffffffffff167fddf252ad1be2c89b69c2b068fc378daa952ba7f163c4a11628f55a4df523b3ef60405160405180910390a490565b5f5481565b5f73ffffffffffffffffffffffffffffffffffffffff168273ffffffffffffffffffffffffffffffffffffffff16036107d6576040517fa38ca3d900000000000000000000000000000000000000000000000000000000815260040160405180910390fd5b5f60015f8381526020019081526020015f205f9054906101000a900473ffffffffffffffffffffffffffffffffffffffff1690508373ffffffffffffffffffffffffffffffffffffffff168173ffffffffffffffffffffffffffffffffffffffff161461086f576040517f30cd747100000000000000000000000000000000000000000000000000000000815260040160405180910390fd5b8073ffffffffffffffffffffffffffffffffffffffff163373ffffffffffffffffffffffffffffffffffffffff1614158015610907575060035f8381526020019081526020015f205f9054906101000a900473ffffffffffffffffffffffffffffffffffffffff1673ffffffffffffffffffffffffffffffffffffffff163373ffffffffffffffffffffffffffffffffffffffff1614155b8015610995575060045f8273ffffffffffffffffffffffffffffffffffffffff1673ffffffffffffffffffffffffffffffffffffffff1681526020019081526020015f205f3373ffffffffffffffffffffffffffffffffffffffff1673ffffffffffffffffffffffffffffffffffffffff1681526020019081526020015f205f9054906101000a900460ff16155b156109cc576040517fc19f17a900000000000000000000000000000000000000000000000000000000815260040160405180910390fd5b60025f8573ffffffffffffffffffffffffffffffffffffffff1673ffffffffffffffffffffffffffffffffffffffff1681526020019081526020015f205f815480929190610a1990611c17565b919050555060025f8473ffffffffffffffffffffffffffffffffffffffff1673ffffffffffffffffffffffffffffffffffffffff1681526020019081526020015f205f815480929190610a6b90611bd0565b91905055508260015f8481526020019081526020015f205f6101000a81548173ffffffffffffffffffffffffffffffffffffffff021916908373ffffffffffffffffffffffffffffffffffffffff16021790555060035f8381526020019081526020015f205f6101000a81549073ffffffffffffffffffffffffffffffffffffffff0219169055818373ffffffffffffffffffffffffffffffffffffffff168573ffffffffffffffffffffffffffffffffffffffff167fddf252ad1be2c89b69c2b068fc378daa952ba7f163c4a11628f55a4df523b3ef60405160405180910390a450505050565b6103e881565b610b64838383610771565b505050565b6001602052805f5260405f205f915054906101000a900473ffffffffffffffffffffffffffffffffffffffff1681565b6002602052805f5260405f205f915090505481565b6040518060400160405280600681526020017f4f5554505554000000000000000000000000000000000000000000000000000081525081565b8060045f3373ffffffffffffffffffffffffffffffffffffffff1673ffffffffffffffffffffffffffffffffffffffff1681526020019081526020015f205f8473ffffffffffffffffffffffffffffffffffffffff1673ffffffffffffffffffffffffffffffffffffffff1681526020019081526020015f205f6101000a81548160ff0219169083151502179055508173ffffffffffffffffffffffffffffffffffffffff163373ffffffffffffffffffffffffffffffffffffffff167f17307eab39ab6107e8899845ad3d59bd9653f200f220920489ca2b5937696c3183604051610cd391906117ae565b60405180910390a35050565b610cea858585610771565b5050505050565b60605f73ffffffffffffffffffffffffffffffffffffffff1660015f8481526020019081526020015f205f9054906101000a900473ffffffffffffffffffffffffffffffffffffffff1673ffffffffffffffffffffffffffffffffffffffff1603610d88576040517fc1ab6dc100000000000000000000000000000000000000000000000000000000815260040160405180910390fd5b5f610d9283610dfc565b90505f610d9f8483610f5e565b9050610daa8161108f565b604051602001610dba9190611cc2565b60405160208183030381529060405292505050919050565b6004602052815f5260405f20602052805f5260405f205f915091509054906101000a900460ff1681565b60605f82604051602001610e109190611d4d565b604051602081830303815290604052805190602001205f1c90505f610e35825f61120e565b90505f610e4383600161120e565b90505f610e5184600261120e565b90505f6005600a86610e639190611d9f565b600a8110610e7457610e73611dcf565b5b018054610e8090611e29565b80601f0160208091040260200160405190810160405280929190818152602001828054610eac90611e29565b8015610ef75780601f10610ece57610100808354040283529160200191610ef7565b820191905f5260205f20905b815481529060010190602001808311610eda57829003601f168201915b505050505090505f6004600887901c610f109190611d9f565b905084610f1d82856113cc565b86868588610f2a8e6114a5565b8a604051602001610f42989796959493929190612405565b6040516020818303038152906040529650505050505050919050565b60605f83604051602001610f729190611d4d565b604051602081830303815290604052805190602001205f1c90505f6005600a83610f9c9190611d9f565b600a8110610fad57610fac611dcf565b5b018054610fb990611e29565b80601f0160208091040260200160405190810160405280929190818152602001828054610fe590611e29565b80156110305780601f1061100757610100808354040283529160200191611030565b820191905f5260205f20905b81548152906001019060200180831161101357829003601f168201915b50505050509050611040856114a5565b6110498561108f565b826110636004600887901c61105e9190611d9f565b6115fe565b60405160200161107694939291906128d3565b6040516020818303038152906040529250505092915050565b60605f6040518060600160405280604081526020016139696040913990505f8351036110cc5760405180602001604052805f815250915050611209565b5f6003600285516110dd9190612989565b6110e791906129bc565b60046110f391906129ec565b90505f6020826111039190612989565b67ffffffffffffffff81111561111c5761111b612a2d565b5b6040519080825280601f01601f19166020018201604052801561114e5781602001600182028036833780820191505090505b5090505f83905060018101602083015f5b88518110156111c55760038101905062ffffff602082018a015116603f8160121c168401518353600183019250603f81600c1c168401518353600183019250603f8160061c168401518353600183019250603f811684015183536001830192505061115f565b506003885106600181146111e057600281146111f0576111fb565b613d3d60f01b60028303526111fb565b603d60f81b60018303525b508484525050819450505050505b919050565b60605f600660188461122091906129ec565b85901c61122d9190611d9f565b90505f8103611274576040518060400160405280600781526020017f23316131613161000000000000000000000000000000000000000000000000008152509150506113c6565b600181036112ba576040518060400160405280600781526020017f23326432643264000000000000000000000000000000000000000000000000008152509150506113c6565b60028103611300576040518060400160405280600781526020017f23346134613461000000000000000000000000000000000000000000000000008152509150506113c6565b60038103611346576040518060400160405280600781526020017f23386230303030000000000000000000000000000000000000000000000000008152509150506113c6565b6004810361138c576040518060400160405280600781526020017f23316133613161000000000000000000000000000000000000000000000000008152509150506113c6565b6040518060400160405280600781526020017f23653865386538000000000000000000000000000000000000000000000000008152509150505b92915050565b60605f8303611406578182838485866040516020016113f096959493929190612dd8565b604051602081830303815290604052905061149f565b6001830361143b5781828384604051602001611425949392919061311d565b604051602081830303815290604052905061149f565b6002830361146e57818283604051602001611458939291906133f6565b604051602081830303815290604052905061149f565b818283848586878860405160200161148d9897969594939291906137fe565b60405160208183030381529060405290505b92915050565b60605f82036114eb576040518060400160405280600181526020017f300000000000000000000000000000000000000000000000000000000000000081525090506115f9565b5f8290505f5b5f821461151a57808061150390611bd0565b915050600a8261151391906129bc565b91506114f1565b5f8167ffffffffffffffff81111561153557611534612a2d565b5b6040519080825280601f01601f1916602001820160405280156115675781602001600182028036833780820191505090505b5090505b5f85146115f25760018261157f9190613935565b9150600a8561158e9190611d9f565b603061159a9190612989565b60f81b8183815181106115b0576115af611dcf565b5b60200101907effffffffffffffffffffffffffffffffffffffffffffffffffffffffffffff191690815f1a905350600a856115eb91906129bc565b945061156b565b8093505050505b919050565b60605f8203611644576040518060400160405280600481526020017f47726964000000000000000000000000000000000000000000000000000000008152509050611707565b60018203611689576040518060400160405280600881526020017f446961676f6e616c0000000000000000000000000000000000000000000000008152509050611707565b600282036116ce576040518060400160405280600781526020017f436972636c6573000000000000000000000000000000000000000000000000008152509050611707565b6040518060400160405280600481526020017f446f74730000000000000000000000000000000000000000000000000000000081525090505b919050565b5f5ffd5b5f5ffd5b5f7fffffffff0000000000000000000000000000000000000000000000000000000082169050919050565b61174881611714565b8114611752575f5ffd5b50565b5f813590506117638161173f565b92915050565b5f6020828403121561177e5761177d61170c565b5b5f61178b84828501611755565b91505092915050565b5f8115159050919050565b6117a881611794565b82525050565b5f6020820190506117c15f83018461179f565b92915050565b5f81519050919050565b5f82825260208201905092915050565b8281835e5f83830152505050565b5f601f19601f8301169050919050565b5f611809826117c7565b61181381856117d1565b93506118238185602086016117e1565b61182c816117ef565b840191505092915050565b5f6020820190508181035f83015261184f81846117ff565b905092915050565b5f819050919050565b61186981611857565b8114611873575f5ffd5b50565b5f8135905061188481611860565b92915050565b5f6020828403121561189f5761189e61170c565b5b5f6118ac84828501611876565b91505092915050565b5f73ffffffffffffffffffffffffffffffffffffffff82169050919050565b5f6118de826118b5565b9050919050565b6118ee816118d4565b82525050565b5f6020820190506119075f8301846118e5565b92915050565b611916816118d4565b8114611920575f5ffd5b50565b5f813590506119318161190d565b92915050565b5f5f6040838503121561194d5761194c61170c565b5b5f61195a85828601611923565b925050602061196b85828601611876565b9150509250929050565b61197e81611857565b82525050565b5f6020820190506119975f830184611975565b92915050565b5f5f5f606084860312156119b4576119b361170c565b5b5f6119c186828701611923565b93505060206119d286828701611923565b92505060406119e386828701611876565b9150509250925092565b5f60208284031215611a0257611a0161170c565b5b5f611a0f84828501611923565b91505092915050565b611a2181611794565b8114611a2b575f5ffd5b50565b5f81359050611a3c81611a18565b92915050565b5f5f60408385031215611a5857611a5761170c565b5b5f611a6585828601611923565b9250506020611a7685828601611a2e565b9150509250929050565b5f5ffd5b5f5ffd5b5f5ffd5b5f5f83601f840112611aa157611aa0611a80565b5b8235905067ffffffffffffffff811115611abe57611abd611a84565b5b602083019150836001820283011115611ada57611ad9611a88565b5b9250929050565b5f5f5f5f5f60808688031215611afa57611af961170c565b5b5f611b0788828901611923565b9550506020611b1888828901611923565b9450506040611b2988828901611876565b935050606086013567ffffffffffffffff811115611b4a57611b49611710565b5b611b5688828901611a8c565b92509250509295509295909350565b5f5f60408385031215611b7b57611b7a61170c565b5b5f611b8885828601611923565b9250506020611b9985828601611923565b9150509250929050565b7f4e487b71000000000000000000000000000000000000000000000000000000005f52601160045260245ffd5b5f611bda82611857565b91507fffffffffffffffffffffffffffffffffffffffffffffffffffffffffffffffff8203611c0c57611c0b611ba3565b5b600182019050919050565b5f611c2182611857565b91505f8203611c3357611c32611ba3565b5b600182039050919050565b5f81905092915050565b7f646174613a6170706c69636174696f6e2f6a736f6e3b6261736536342c0000005f82015250565b5f611c7c601d83611c3e565b9150611c8782611c48565b601d82019050919050565b5f611c9c826117c7565b611ca68185611c3e565b9350611cb68185602086016117e1565b80840191505092915050565b5f611ccc82611c70565b9150611cd88284611c92565b915081905092915050565b5f819050919050565b611cfd611cf882611857565b611ce3565b82525050565b7f4f555450555400000000000000000000000000000000000000000000000000005f82015250565b5f611d37600683611c3e565b9150611d4282611d03565b600682019050919050565b5f611d588284611cec565b602082019150611d6782611d2b565b915081905092915050565b7f4e487b71000000000000000000000000000000000000000000000000000000005f52601260045260245ffd5b5f611da982611857565b9150611db483611857565b925082611dc457611dc3611d72565b5b828206905092915050565b7f4e487b71000000000000000000000000000000000000000000000000000000005f52603260045260245ffd5b7f4e487b71000000000000000000000000000000000000000000000000000000005f52602260045260245ffd5b5f6002820490506001821680611e4057607f821691505b602082108103611e5357611e52611dfc565b5b50919050565b7f3c73766720786d6c6e733d22687474703a2f2f7777772e77332e6f72672f32305f8201527f30302f737667222076696577426f783d223020302034303020343030223e0000602082015250565b5f611eb3603e83611c3e565b9150611ebe82611e59565b603e82019050919050565b7f3c726563742077696474683d2234303022206865696768743d223430302220665f8201527f696c6c3d22000000000000000000000000000000000000000000000000000000602082015250565b5f611f23602583611c3e565b9150611f2e82611ec9565b602582019050919050565b7f222f3e00000000000000000000000000000000000000000000000000000000005f82015250565b5f611f6d600383611c3e565b9150611f7882611f39565b600382019050919050565b7f3c7265637420783d2232302220793d22313430222077696474683d22333630225f8201527f206865696768743d22313230222066696c6c3d22000000000000000000000000602082015250565b5f611fdd603483611c3e565b9150611fe882611f83565b603482019050919050565b7f22206f7061636974793d22302e39222f3e0000000000000000000000000000005f82015250565b5f612027601183611c3e565b915061203282611ff3565b601182019050919050565b7f3c7465787420783d223230302220793d223138302220746578742d616e63686f5f8201527f723d226d6964646c652220666f6e742d66616d696c793d226d6f6e6f7370616360208201527f652220666f6e742d73697a653d223132222066696c6c3d220000000000000000604082015250565b5f6120bd605883611c3e565b91506120c88261203d565b605882019050919050565b7f2220666f6e742d7765696768743d22626f6c64223e00000000000000000000005f82015250565b5f612107601583611c3e565b9150612112826120d3565b601582019050919050565b7f3c2f746578743e000000000000000000000000000000000000000000000000005f82015250565b5f612151600783611c3e565b915061215c8261211d565b600782019050919050565b7f3c7465787420783d223230302220793d223232302220746578742d616e63686f5f8201527f723d226d6964646c652220666f6e742d66616d696c793d226d6f6e6f7370616360208201527f652220666f6e742d73697a653d223130222066696c6c3d220000000000000000604082015250565b5f6121e7605883611c3e565b91506121f282612167565b605882019050919050565b7f223e0000000000000000000000000000000000000000000000000000000000005f82015250565b5f612231600283611c3e565b915061223c826121fd565b600282019050919050565b7f4f555450555420230000000000000000000000000000000000000000000000005f82015250565b5f61227b600883611c3e565b915061228682612247565b600882019050919050565b7f3c7465787420783d223230302220793d223338302220746578742d616e63686f5f8201527f723d226d6964646c652220666f6e742d66616d696c793d226d6f6e6f7370616360208201527f652220666f6e742d73697a653d2238222066696c6c3d22000000000000000000604082015250565b5f612311605783611c3e565b915061231c82612291565b605782019050919050565b7f22206f7061636974793d22302e35223e000000000000000000000000000000005f82015250565b5f61235b601083611c3e565b915061236682612327565b601082019050919050565b7f7465646b61637a796e736b692d7468652d626f740000000000000000000000005f82015250565b5f6123a5601483611c3e565b91506123b082612371565b601482019050919050565b7f3c2f7376673e00000000000000000000000000000000000000000000000000005f82015250565b5f6123ef600683611c3e565b91506123fa826123bb565b600682019050919050565b5f61240f82611ea7565b915061241a82611f17565b9150612426828b611c92565b915061243182611f61565b915061243d828a611c92565b915061244882611fd1565b91506124548289611c92565b915061245f8261201b565b915061246a826120b1565b91506124768288611c92565b9150612481826120fb565b915061248d8287611c92565b915061249882612145565b91506124a3826121db565b91506124af8286611c92565b91506124ba82612225565b91506124c58261226f565b91506124d18285611c92565b91506124dc82612145565b91506124e782612305565b91506124f38284611c92565b91506124fe8261234f565b915061250982612399565b915061251482612145565b915061251f826123e3565b91508190509998505050505050505050565b7f7b226e616d65223a22496e647573747269616c204f75747075742023000000005f82015250565b5f612565601c83611c3e565b915061257082612531565b601c82019050919050565b7f222c0000000000000000000000000000000000000000000000000000000000005f82015250565b5f6125af600283611c3e565b91506125ba8261257b565b600282019050919050565b7f226465736372697074696f6e223a224f6e2d636861696e2067656e65726174695f8201527f766520616e74692d746563682070726f706167616e64612e2054686520696e6460208201527f7573747269616c207265766f6c7574696f6e20616e642069747320636f6e736560408201527f7175656e6365732e222c00000000000000000000000000000000000000000000606082015250565b5f61266b606a83611c3e565b9150612676826125c5565b606a82019050919050565b7f22696d616765223a22646174613a696d6167652f7376672b786d6c3b626173655f8201527f36342c0000000000000000000000000000000000000000000000000000000000602082015250565b5f6126db602383611c3e565b91506126e682612681565b602382019050919050565b7f2261747472696275746573223a5b0000000000000000000000000000000000005f82015250565b5f612725600e83611c3e565b9150612730826126f1565b600e82019050919050565b7f7b2274726169745f74797065223a2251756f7465222c2276616c7565223a22005f82015250565b5f61276f601f83611c3e565b915061277a8261273b565b601f82019050919050565b7f227d2c00000000000000000000000000000000000000000000000000000000005f82015250565b5f6127b9600383611c3e565b91506127c482612785565b600382019050919050565b7f7b2274726169745f74797065223a225061747465726e222c2276616c7565223a5f8201527f2200000000000000000000000000000000000000000000000000000000000000602082015250565b5f612829602183611c3e565b9150612834826127cf565b602182019050919050565b7f227d0000000000000000000000000000000000000000000000000000000000005f82015250565b5f612873600283611c3e565b915061287e8261283f565b600282019050919050565b7f5d7d0000000000000000000000000000000000000000000000000000000000005f82015250565b5f6128bd600283611c3e565b91506128c882612889565b600282019050919050565b5f6128dd82612559565b91506128e98287611c92565b91506128f4826125a3565b91506128ff8261265f565b915061290a826126cf565b91506129168286611c92565b9150612921826125a3565b915061292c82612719565b915061293782612763565b91506129438285611c92565b915061294e826127ad565b91506129598261281d565b91506129658284611c92565b915061297082612867565b915061297b826128b1565b915081905095945050505050565b5f61299382611857565b915061299e83611857565b92508282019050808211156129b6576129b5611ba3565b5b92915050565b5f6129c682611857565b91506129d183611857565b9250826129e1576129e0611d72565b5b828204905092915050565b5f6129f682611857565b9150612a0183611857565b9250828202612a0f81611857565b91508282048414831517612a2657612a25611ba3565b5b5092915050565b7f4e487b71000000000000000000000000000000000000000000000000000000005f52604160045260245ffd5b7f3c67206f7061636974793d22302e33223e0000000000000000000000000000005f82015250565b5f612a8e601183611c3e565b9150612a9982612a5a565b601182019050919050565b7f3c6c696e652078313d2230222079313d22313030222078323d223430302220795f8201527f323d2231303022207374726f6b653d2200000000000000000000000000000000602082015250565b5f612afe603083611c3e565b9150612b0982612aa4565b603082019050919050565b7f22207374726f6b652d77696474683d2231222f3e0000000000000000000000005f82015250565b5f612b48601483611c3e565b9150612b5382612b14565b601482019050919050565b7f3c6c696e652078313d2230222079313d22323030222078323d223430302220795f8201527f323d2232303022207374726f6b653d2200000000000000000000000000000000602082015250565b5f612bb8603083611c3e565b9150612bc382612b5e565b603082019050919050565b7f3c6c696e652078313d2230222079313d22333030222078323d223430302220795f8201527f323d2233303022207374726f6b653d2200000000000000000000000000000000602082015250565b5f612c28603083611c3e565b9150612c3382612bce565b603082019050919050565b7f3c6c696e652078313d22313030222079313d2230222078323d223130302220795f8201527f323d2234303022207374726f6b653d2200000000000000000000000000000000602082015250565b5f612c98603083611c3e565b9150612ca382612c3e565b603082019050919050565b7f3c6c696e652078313d22323030222079313d2230222078323d223230302220795f8201527f323d2234303022207374726f6b653d2200000000000000000000000000000000602082015250565b5f612d08603083611c3e565b9150612d1382612cae565b603082019050919050565b7f3c6c696e652078313d22333030222079313d2230222078323d223330302220795f8201527f323d2234303022207374726f6b653d2200000000000000000000000000000000602082015250565b5f612d78603083611c3e565b9150612d8382612d1e565b603082019050919050565b7f3c2f673e000000000000000000000000000000000000000000000000000000005f82015250565b5f612dc2600483611c3e565b9150612dcd82612d8e565b600482019050919050565b5f612de282612a82565b9150612ded82612af2565b9150612df98289611c92565b9150612e0482612b3c565b9150612e0f82612bac565b9150612e1b8288611c92565b9150612e2682612b3c565b9150612e3182612c1c565b9150612e3d8287611c92565b9150612e4882612b3c565b9150612e5382612c8c565b9150612e5f8286611c92565b9150612e6a82612b3c565b9150612e7582612cfc565b9150612e818285611c92565b9150612e8c82612b3c565b9150612e9782612d6c565b9150612ea38284611c92565b9150612eae82612b3c565b9150612eb982612db6565b9150819050979650505050505050565b7f3c67206f7061636974793d22302e32223e0000000000000000000000000000005f82015250565b5f612efd601183611c3e565b9150612f0882612ec9565b601182019050919050565b7f3c6c696e652078313d2230222079313d2230222078323d22343030222079323d5f8201527f2234303022207374726f6b653d22000000000000000000000000000000000000602082015250565b5f612f6d602e83611c3e565b9150612f7882612f13565b602e82019050919050565b7f22207374726f6b652d77696474683d2232222f3e0000000000000000000000005f82015250565b5f612fb7601483611c3e565b9150612fc282612f83565b601482019050919050565b7f3c6c696e652078313d22313030222079313d2230222078323d223430302220795f8201527f323d2233303022207374726f6b653d2200000000000000000000000000000000602082015250565b5f613027603083611c3e565b915061303282612fcd565b603082019050919050565b7f3c6c696e652078313d2230222079313d22313030222078323d223330302220795f8201527f323d2234303022207374726f6b653d2200000000000000000000000000000000602082015250565b5f613097603083611c3e565b91506130a28261303d565b603082019050919050565b7f3c6c696e652078313d22343030222079313d2230222078323d2230222079323d5f8201527f2234303022207374726f6b653d22000000000000000000000000000000000000602082015250565b5f613107602e83611c3e565b9150613112826130ad565b602e82019050919050565b5f61312782612ef1565b915061313282612f61565b915061313e8287611c92565b915061314982612fab565b91506131548261301b565b91506131608286611c92565b915061316b82612b3c565b91506131768261308b565b91506131828285611c92565b915061318d82612b3c565b9150613198826130fb565b91506131a48284611c92565b91506131af82612fab565b91506131ba82612db6565b915081905095945050505050565b7f3c67206f7061636974793d22302e3135223e00000000000000000000000000005f82015250565b5f6131fc601283611c3e565b9150613207826131c8565b601282019050919050565b7f3c636972636c652063783d22323030222063793d223230302220723d223135305f8201527f22207374726f6b653d2200000000000000000000000000000000000000000000602082015250565b5f61326c602a83611c3e565b915061327782613212565b602a82019050919050565b7f222066696c6c3d226e6f6e6522207374726f6b652d77696474683d2232222f3e5f82015250565b5f6132b6602083611c3e565b91506132c182613282565b602082019050919050565b7f3c636972636c652063783d22323030222063793d223230302220723d223130305f8201527f22207374726f6b653d2200000000000000000000000000000000000000000000602082015250565b5f613326602a83611c3e565b9150613331826132cc565b602a82019050919050565b7f222066696c6c3d226e6f6e6522207374726f6b652d77696474683d2231222f3e5f82015250565b5f613370602083611c3e565b915061337b8261333c565b602082019050919050565b7f3c636972636c652063783d22323030222063793d223230302220723d223530225f8201527f207374726f6b653d220000000000000000000000000000000000000000000000602082015250565b5f6133e0602983611c3e565b91506133eb82613386565b602982019050919050565b5f613400826131f0565b915061340b82613260565b91506134178286611c92565b9150613422826132aa565b915061342d8261331a565b91506134398285611c92565b915061344482613364565b915061344f826133d4565b915061345b8284611c92565b915061346682613364565b915061347182612db6565b9150819050949350505050565b7f3c636972636c652063783d223530222063793d2235302220723d2235222066695f8201527f6c6c3d2200000000000000000000000000000000000000000000000000000000602082015250565b5f6134d8602483611c3e565b91506134e38261347e565b602482019050919050565b7f3c636972636c652063783d22313530222063793d2235302220723d22352220665f8201527f696c6c3d22000000000000000000000000000000000000000000000000000000602082015250565b5f613548602583611c3e565b9150613553826134ee565b602582019050919050565b7f3c636972636c652063783d22323530222063793d2235302220723d22352220665f8201527f696c6c3d22000000000000000000000000000000000000000000000000000000602082015250565b5f6135b8602583611c3e565b91506135c38261355e565b602582019050919050565b7f3c636972636c652063783d22333530222063793d2235302220723d22352220665f8201527f696c6c3d22000000000000000000000000000000000000000000000000000000602082015250565b5f613628602583611c3e565b9150613633826135ce565b602582019050919050565b7f3c636972636c652063783d223530222063793d223335302220723d22352220665f8201527f696c6c3d22000000000000000000000000000000000000000000000000000000602082015250565b5f613698602583611c3e565b91506136a38261363e565b602582019050919050565b7f3c636972636c652063783d22313530222063793d223335302220723d223522205f8201527f66696c6c3d220000000000000000000000000000000000000000000000000000602082015250565b5f613708602683611c3e565b9150613713826136ae565b602682019050919050565b7f3c636972636c652063783d22323530222063793d223335302220723d223522205f8201527f66696c6c3d220000000000000000000000000000000000000000000000000000602082015250565b5f613778602683611c3e565b91506137838261371e565b602682019050919050565b7f3c636972636c652063783d22333530222063793d223335302220723d223522205f8201527f66696c6c3d220000000000000000000000000000000000000000000000000000602082015250565b5f6137e8602683611c3e565b91506137f38261378e565b602682019050919050565b5f61380882612ef1565b9150613813826134cc565b915061381f828b611c92565b915061382a82611f61565b91506138358261353c565b9150613841828a611c92565b915061384c82611f61565b9150613857826135ac565b91506138638289611c92565b915061386e82611f61565b91506138798261361c565b91506138858288611c92565b915061389082611f61565b915061389b8261368c565b91506138a78287611c92565b91506138b282611f61565b91506138bd826136fc565b91506138c98286611c92565b91506138d482611f61565b91506138df8261376c565b91506138eb8285611c92565b91506138f682611f61565b9150613901826137dc565b915061390d8284611c92565b915061391882611f61565b915061392382612db6565b91508190509998505050505050505050565b5f61393f82611857565b915061394a83611857565b925082820390508181111561396257613961611ba3565b5b9291505056fe4142434445464748494a4b4c4d4e4f505152535455565758595a6162636465666768696a6b6c6d6e6f707172737475767778797a303132333435363738392b2fa26469706673582212200b4ba593954a9bd9c146a3520c7fe1388be40cbc62150a7d60489895242594b664736f6c634300082100335448452053595354454d20444f4553204e4f5420455849535420544f2053455256452048554d414e204e4545445354484520494e445553545249414c205245564f4c5554494f4e20414e442049545320434f4e53455155454e434553544543484e4f4c4f47592049532041204d4f524520504f57455246554c20534f4349414c20464f524345205448414e2046524545444f4d46524545444f4d20414e4420544543484e4f4c4f47592041524520494e434f4d50415449424c45544543484e4f4c4f475920414456414e4345532057495448204e4f2048554d414e20434f4e54524f4c4d4f4445524e20534f43494554592054454e445320544f20424520434f4e464f524d4953544e415455524520495320544845204f50504f53495445204f4620544543484e4f4c4f4759","linkReferences":{}},"methodIdentifiers":{"MAX_SUPPLY()":"32cb6b0c","approve(address,uint256)":"095ea7b3","balanceOf(address)":"70a08231","getApproved(uint256)":"081812fc","isApprovedForAll(address,address)":"e985e9c5","mint()":"1249c58b","name()":"06fdde03","ownerOf(uint256)":"6352211e","safeTransferFrom(address,address,uint256)":"42842e0e","safeTransferFrom(address,address,uint256,bytes)":"b88d4fde","setApprovalForAll(address,bool)":"a22cb465","supportsInterface(bytes4)":"01ffc9a7","symbol()":"95d89b41","tokenURI(uint256)":"c87b56dd","totalSupply()":"18160ddd","transferFrom(address,address,uint256)":"23b872dd"},"id":0}