{"abi":[{"type":"function","name":"MAX_SUPPLY","inputs":[],"outputs":[{"name":"","type":"uint256","internalType":"uint256"}],"stateMutability":"view"},{"type":"function","name":"approve","inputs":[{"name":"to","type":"address","internalType":"address"},{"name":"tokenId","type":"uint256","internalType":"uint256"}],"outputs":[],"stateMutability":"nonpayable"},{"type":"function","name":"balanceOf","inputs":[{"name":"","type":"address","internalType":"address"}],"outputs":[{"name":"","type":"uint256","internalType":"uint256"}],"stateMutability":"view"},{"type":"function","name":"getApproved","inputs":[{"name":"","type":"uint256","internalType":"uint256"}],"outputs":[{"name":"","type":"address","internalType":"address"}],"stateMutability":"view"},{"type":"function","name":"isApprovedForAll","inputs":[{"name":"","type":"address","internalType":"address"},{"name":"","type":"address","internalType":"address"}],"outputs":[{"name":"","type":"bool","internalType":"bool"}],"stateMutability":"view"},{"type":"function","name":"mint","inputs":[],"outputs":[{"name":"tokenId","type":"uint256","internalType":"uint256"}],"stateMutability":"nonpayable"},{"type":"function","name":"name","inputs":[],"outputs":[{"name":"","type":"string","internalType":"string"}],"stateMutability":"view"},{"type":"function","name":"ownerOf","inputs":[{"name":"","type":"uint256","internalType":"uint256"}],"outputs":[{"name":"","type":"address","internalType":"address"}],"stateMutability":"view"},{"type":"function","name":"safeTransferFrom","inputs":[{"name":"from","type":"address","internalType":"address"},{"name":"to","type":"address","internalType":"address"},{"name":"tokenId","type":"uint256","internalType":"uint256"}],"outputs":[],"stateMutability":"nonpayable"},{"type":"function","name":"safeTransferFrom","inputs":[{"name":"from","type":"address","internalType":"address"},{"name":"to","type":"address","internalType":"address"},{"name":"tokenId","type":"uint256","internalType":"uint256"},{"name":"","type":"bytes","internalType":"bytes"}],"outputs":[],"stateMutability":"nonpayable"},{"type":"function","name":"setApprovalForAll","inputs":[{"name":"operator","type":"address","internalType":"address"},{"name":"approved","type":"bool","internalType":"bool"}],"outputs":[],"stateMutability":"nonpayable"},{"type":"function","name":"supportsInterface","inputs":[{"name":"interfaceId","type":"bytes4","internalType":"bytes4"}],"outputs":[{"name":"","type":"bool","internalType":"bool"}],"stateMutability":"pure"},{"type":"function","name":"symbol","inputs":[],"outputs":[{"name":"","type":"string","internalType":"string"}],"stateMutability":"view"},{"type":"function","name":"tokenURI","inputs":[{"name":"tokenId","type":"uint256","internalType":"uint256"}],"outputs":[{"name":"","type":"string","internalType":"string"}],"stateMutability":"view"},{"type":"function","name":"totalSupply","inputs":[],"outputs":[{"name":"","type":"uint256","internalType":"uint256"}],"stateMutability":"view"},{"type":"function","name":"transferFrom","inputs":[{"name":"from","type":"address","internalType":"address"},{"name":"to","type":"address","internalType":"address"},{"name":"tokenId","type":"uint256","internalType":"uint256"}],"outputs":[],"stateMutability":"nonpayable"},{"type":"event","name":"Approval","inputs":[{"name":"owner","type":"address","indexed":true,"internalType":"address"},{"name":"approved","type":"address","indexed":true,"internalType":"address"},{"name":"tokenId","type":"uint256","indexed":true,"internalType":"uint256"}],"anonymous":false},{"type":"event","name":"ApprovalForAll","inputs":[{"name":"owner","type":"address","indexed":true,"internalType":"address"},{"name":"operator","type":"address","indexed":true,"internalType":"address"},{"name":"approved","type":"bool","indexed":false,"internalType":"bool"}],"anonymous":false},{"type":"event","name":"Transfer","inputs":[{"name":"from","type":"address","indexed":true,"internalType":"address"},{"name":"to","type":"address","indexed":true,"internalType":"address"},{"name":"tokenId","type":"uint256","indexed":true,"internalType":"uint256"}],"anonymous":false},{"type":"error","name":"AlreadyMinted","inputs":[]},{"type":"error","name":"InvalidToken","inputs":[]},{"type":"error","name":"MintClosed","inputs":[]},{"type":"error","name":"NotApproved","inputs":[]},{"type":"error","name":"NotOwner","inputs":[]},{"type":"error","name":"TransferToZero","inputs":[]}],"bytecode":{"object":"0x60806040526040518061028001604052806040518060600160405280602e815260200161581d602e9139815260200160405180606001604052806037815260200161586d6037913981526020016040518060600160405280602e81526020016157ef602e913981526020016040518060600160405280602581526020016159426025913981526020016040518060600160405280602981526020016159196029913981526020016040518060400160405280601581526020017f52455455524e20544f2057494c44204e4154555245000000000000000000000081525081526020016040518060600160405280602781526020016158ca6027913981526020016040518060400160405280601e81526020017f544845204d414348494e452043414e4e4f54204245205245464f524d4544000081525081526020016040518060400160405280601c81526020017f52454a4543542054484520494e445553545249414c2053595354454d00000000815250815260200160405180606001604052806024815260200161598b6024913981526020016040518060600160405280602881526020016158f160289139815260200160405180606001604052806022815260200161584b6022913981526020016040518060400160405280601681526020017f5052494d4954495645204d414e2057415320465245450000000000000000000081525081526020016040518060400160405280601e81526020017f504f57455220434f52525550545320414c4c2057484f205345454b204954000081525081526020016040518060400160405280601f81526020017f544543484e4f4c4f47592043524541544553204e45572050524f424c454d530081525081526020016040518060400160405280601d81526020017f4553434150452054484520544543484e4f4c4f474943414c205452415000000081525081526020016040518060400160405280601a81526020017f53494d504c4943495459204f56455220434f4d504c455849545900000000000081525081526020016040518060600160405280602681526020016158a46026913981526020016040518060600160405280602481526020016159676024913981526020016040518060400160405280601c81526020017f54484520434f4e54524144494354494f4e2049532054484520415254000000008152508152506005908161037991906109cf565b50348015610385575f5ffd5b50610a31565b5f819050919050565b7f4e487b71000000000000000000000000000000000000000000000000000000005f52604160045260245ffd5b5f60149050919050565b5f819050919050565b5f8190506001806001038301049050919050565b5f819050919050565b7f4e487b71000000000000000000000000000000000000000000000000000000005f52602260045260245ffd5b5f600282049050600182168061043557607f821691505b602082108103610448576104476103f1565b5b50919050565b5f819050815f5260205f209050919050565b5f82821c905092915050565b61049c7fffffffffffffffffffffffffffffffffffffffffffffffffffffffffffffffff83602003600802610460565b815481168255505050565b5f82821b905092915050565b5f600883026104e27fffffffffffffffffffffffffffffffffffffffffffffffffffffffffffffffff826104a7565b6104ec86836104a7565b95508019841693508086168417925050509392505050565b5f819050919050565b5f61052761052261051d846103cb565b610504565b6103cb565b9050919050565b5f819050919050565b6105408361050d565b61055461054c8261052e565b8484546104b3565b825550505050565b5f5f905090565b61056b61055c565b610576818484610537565b505050565b5f5b8281101561059c576105915f828401610563565b60018101905061057d565b505050565b5f6105b05f1984600802610460565b1980831691505092915050565b5f6105c883836105a1565b9150826002028217905092915050565b6105e18161044e565b6105ec8382546105bd565b8083555f825550505050565b5f6020601f8301049050919050565b602084105f811461066257601f84116001811461062f5761062886856105bd565b835561065c565b6106388361044e565b6106506001610646886105f8565b036001830161057b565b61065a87856105d8565b505b506106bc565b61066b856105f8565b610674856105f8565b61067d8461044e565b828101601f8916801561069857610697816001840361046c565b5b848411156106ad576106ac8585038361057b565b5b60018a60020217875550505050505b5050505050565b680100000000000000008411156106dd576106dc610394565b5b602083105f811461072657602085105f8114610704576106fd86856105bd565b8355610720565b8360ff19169350836107158461044e565b556001866002020183555b50610730565b6001856002020182555b5050505050565b80546107428161041e565b8084111561075757610756848284866106c3565b5b8084101561076c5761076b84828486610607565b5b50505050565b82811015610791576107865f828401610563565b600181019050610772565b505050565b6107a05f82610737565b50565b7f4e487b71000000000000000000000000000000000000000000000000000000005f525f60045260245ffd5b5f82146107df576107de6107a3565b5b6107e881610796565b5050565b5f5b8281101561080d576108025f8284016107cf565b6001810190506107ee565b505050565b8183101561084957610823826103d4565b61082c846103d4565b610835836103e8565b818101610844838503826107ec565b505050505b505050565b6801000000000000000082111561086857610867610394565b5b610871816103c1565b61087c838284610812565b505050565b5f60149050919050565b5f81519050919050565b5f81519050919050565b601f8211156108ed57828211156108ec576108b98161044e565b6108c2836105f8565b6108cb856105f8565b60208610156108d8575f90505b8083016108e78284038261057b565b505050505b5b505050565b6108fb82610895565b67ffffffffffffffff81111561091457610913610394565b5b61091e825461041e565b61092982828561089f565b5f60209050601f83116001811461095a575f8415610948578287015190505b61095285826105bd565b8655506109b9565b601f1984166109688661044e565b5f5b8281101561098f5784890151825560018201915060208501945060208101905061096a565b868310156109ac57848901516109a8601f8916826105a1565b8355505b6001600288020188555050505b505050505050565b6109cb82826108f2565b5050565b6109d882610881565b6109e2818361084e565b6109eb8361038b565b6109f4836103e8565b5f5b83811015610a2957610a078361088b565b610a1181846109c1565b602084019350600183019250506001810190506109f6565b505050505050565b614db180610a3e5f395ff3fe608060405234801561000f575f5ffd5b50600436106100fe575f3560e01c806342842e0e11610095578063a22cb46511610064578063a22cb465146102ac578063b88d4fde146102c8578063c87b56dd146102e4578063e985e9c514610314576100fe565b806342842e0e146102125780636352211e1461022e57806370a082311461025e57806395d89b411461028e576100fe565b80631249c58b116100d15780631249c58b1461019c57806318160ddd146101ba57806323b872dd146101d857806332cb6b0c146101f4576100fe565b806301ffc9a71461010257806306fdde0314610132578063081812fc14610150578063095ea7b314610180575b5f5ffd5b61011c600480360381019061011791906121c2565b610344565b6040516101299190612207565b60405180910390f35b61013a6103d5565b6040516101479190612290565b60405180910390f35b61016a600480360381019061016591906122e3565b61040e565b604051610177919061234d565b60405180910390f35b61019a60048036038101906101959190612390565b61043e565b005b6101a4610616565b6040516101b191906123dd565b60405180910390f35b6101c261076c565b6040516101cf91906123dd565b60405180910390f35b6101f260048036038101906101ed91906123f6565b610771565b005b6101fc610b53565b60405161020991906123dd565b60405180910390f35b61022c600480360381019061022791906123f6565b610b59565b005b610248600480360381019061024391906122e3565b610b69565b604051610255919061234d565b60405180910390f35b61027860048036038101906102739190612446565b610b99565b60405161028591906123dd565b60405180910390f35b610296610bae565b6040516102a39190612290565b60405180910390f35b6102c660048036038101906102c1919061249b565b610be7565b005b6102e260048036038101906102dd919061253a565b610cdf565b005b6102fe60048036038101906102f991906122e3565b610cf1565b60405161030b9190612290565b60405180910390f35b61032e600480360381019061032991906125be565b610dd2565b60405161033b9190612207565b60405180910390f35b5f6380ac58cd60e01b827bffffffffffffffffffffffffffffffffffffffffffffffffffffffff1916148061039e5750635b5e139f60e01b827bffffffffffffffffffffffffffffffffffffffffffffffffffffffff1916145b806103ce57506301ffc9a760e01b827bffffffffffffffffffffffffffffffffffffffffffffffffffffffff1916145b9050919050565b6040518060400160405280601181526020017f496e647573747269616c204f757470757400000000000000000000000000000081525081565b6003602052805f5260405f205f915054906101000a900473ffffffffffffffffffffffffffffffffffffffff1681565b5f60015f8381526020019081526020015f205f9054906101000a900473ffffffffffffffffffffffffffffffffffffffff1690508073ffffffffffffffffffffffffffffffffffffffff163373ffffffffffffffffffffffffffffffffffffffff1614158015610530575060045f8273ffffffffffffffffffffffffffffffffffffffff1673ffffffffffffffffffffffffffffffffffffffff1681526020019081526020015f205f3373ffffffffffffffffffffffffffffffffffffffff1673ffffffffffffffffffffffffffffffffffffffff1681526020019081526020015f205f9054906101000a900460ff16155b15610567576040517fc19f17a900000000000000000000000000000000000000000000000000000000815260040160405180910390fd5b8260035f8481526020019081526020015f205f6101000a81548173ffffffffffffffffffffffffffffffffffffffff021916908373ffffffffffffffffffffffffffffffffffffffff160217905550818373ffffffffffffffffffffffffffffffffffffffff168273ffffffffffffffffffffffffffffffffffffffff167f8c5be1e5ebec7d5bd14f71427d1e84f3dd0314c0f7b2291e5b200ac8c7c3b92560405160405180910390a4505050565b5f6103e85f5410610653576040517f589ed34b00000000000000000000000000000000000000000000000000000000815260040160405180910390fd5b5f5490505f5f81548092919061066890612629565b91905055503360015f8381526020019081526020015f205f6101000a81548173ffffffffffffffffffffffffffffffffffffffff021916908373ffffffffffffffffffffffffffffffffffffffff16021790555060025f3373ffffffffffffffffffffffffffffffffffffffff1673ffffffffffffffffffffffffffffffffffffffff1681526020019081526020015f205f81548092919061070990612629565b9190505550803373ffffffffffffffffffffffffffffffffffffffff165f73ffffffffffffffffffffffffffffffffffffffff167fddf252ad1be2c89b69c2b068fc378daa952ba7f163c4a11628f55a4df523b3ef60405160405180910390a490565b5f5481565b5f73ffffffffffffffffffffffffffffffffffffffff168273ffffffffffffffffffffffffffffffffffffffff16036107d6576040517fa38ca3d900000000000000000000000000000000000000000000000000000000815260040160405180910390fd5b5f60015f8381526020019081526020015f205f9054906101000a900473ffffffffffffffffffffffffffffffffffffffff1690508373ffffffffffffffffffffffffffffffffffffffff168173ffffffffffffffffffffffffffffffffffffffff161461086f576040517f30cd747100000000000000000000000000000000000000000000000000000000815260040160405180910390fd5b8073ffffffffffffffffffffffffffffffffffffffff163373ffffffffffffffffffffffffffffffffffffffff1614158015610907575060035f8381526020019081526020015f205f9054906101000a900473ffffffffffffffffffffffffffffffffffffffff1673ffffffffffffffffffffffffffffffffffffffff163373ffffffffffffffffffffffffffffffffffffffff1614155b8015610995575060045f8273ffffffffffffffffffffffffffffffffffffffff1673ffffffffffffffffffffffffffffffffffffffff1681526020019081526020015f205f3373ffffffffffffffffffffffffffffffffffffffff1673ffffffffffffffffffffffffffffffffffffffff1681526020019081526020015f205f9054906101000a900460ff16155b156109cc576040517fc19f17a900000000000000000000000000000000000000000000000000000000815260040160405180910390fd5b60025f8573ffffffffffffffffffffffffffffffffffffffff1673ffffffffffffffffffffffffffffffffffffffff1681526020019081526020015f205f815480929190610a1990612670565b919050555060025f8473ffffffffffffffffffffffffffffffffffffffff1673ffffffffffffffffffffffffffffffffffffffff1681526020019081526020015f205f815480929190610a6b90612629565b91905055508260015f8481526020019081526020015f205f6101000a81548173ffffffffffffffffffffffffffffffffffffffff021916908373ffffffffffffffffffffffffffffffffffffffff16021790555060035f8381526020019081526020015f205f6101000a81549073ffffffffffffffffffffffffffffffffffffffff0219169055818373ffffffffffffffffffffffffffffffffffffffff168573ffffffffffffffffffffffffffffffffffffffff167fddf252ad1be2c89b69c2b068fc378daa952ba7f163c4a11628f55a4df523b3ef60405160405180910390a450505050565b6103e881565b610b64838383610771565b505050565b6001602052805f5260405f205f915054906101000a900473ffffffffffffffffffffffffffffffffffffffff1681565b6002602052805f5260405f205f915090505481565b6040518060400160405280600681526020017f4f5554505554000000000000000000000000000000000000000000000000000081525081565b8060045f3373ffffffffffffffffffffffffffffffffffffffff1673ffffffffffffffffffffffffffffffffffffffff1681526020019081526020015f205f8473ffffffffffffffffffffffffffffffffffffffff1673ffffffffffffffffffffffffffffffffffffffff1681526020019081526020015f205f6101000a81548160ff0219169083151502179055508173ffffffffffffffffffffffffffffffffffffffff163373ffffffffffffffffffffffffffffffffffffffff167f17307eab39ab6107e8899845ad3d59bd9653f200f220920489ca2b5937696c3183604051610cd39190612207565b60405180910390a35050565b610cea858585610771565b5050505050565b60605f73ffffffffffffffffffffffffffffffffffffffff1660015f8481526020019081526020015f205f9054906101000a900473ffffffffffffffffffffffffffffffffffffffff1673ffffffffffffffffffffffffffffffffffffffff1603610d88576040517fc1ab6dc100000000000000000000000000000000000000000000000000000000815260040160405180910390fd5b5f610d9283610dfc565b90505f610d9f8483610f52565b9050610daa81611091565b604051602001610dba919061271b565b60405160208183030381529060405292505050919050565b6004602052815f5260405f20602052805f5260405f205f915091509054906101000a900460ff1681565b60605f82604051602001610e1091906127a6565b604051602081830303815290604052805190602001205f1c90505f610e3482611210565b90505f610e40836114da565b90505f610e4c84611718565b90505f6005601486610e5e91906127f8565b60148110610e6f57610e6e612828565b5b018054610e7b90612882565b80601f0160208091040260200160405190810160405280929190818152602001828054610ea790612882565b8015610ef25780601f10610ec957610100808354040283529160200191610ef2565b820191905f5260205f20905b815481529060010190602001808311610ed557829003601f168201915b505050505090505f60088087901c610f0a91906127f8565b905084610f178285611a6e565b86610f23858c89611c0c565b604051602001610f369493929190612ae0565b6040516020818303038152906040529650505050505050919050565b60605f83604051602001610f6691906127a6565b604051602081830303815290604052805190602001205f1c90505f6005601483610f9091906127f8565b60148110610fa157610fa0612828565b5b018054610fad90612882565b80601f0160208091040260200160405190810160405280929190818152602001828054610fd990612882565b80156110245780601f10610ffb57610100808354040283529160200191611024565b820191905f5260205f20905b81548152906001019060200180831161100757829003601f168201915b505050505090505f60088084901c61103c91906127f8565b905061104786611c47565b61105086611091565b8361105a84611da0565b61106387611fc2565b604051602001611077959493929190612f4b565b604051602081830303815290604052935050505092915050565b60605f604051806060016040528060408152602001614d3c6040913990505f8351036110ce5760405180602001604052805f81525091505061120b565b5f6003600285516110df9190613024565b6110e99190613057565b60046110f59190613087565b90505f6020826111059190613024565b67ffffffffffffffff81111561111e5761111d6130c8565b5b6040519080825280601f01601f1916602001820160405280156111505781602001600182028036833780820191505090505b5090505f83905060018101602083015f5b88518110156111c75760038101905062ffffff602082018a015116603f8160121c168401518353600183019250603f81600c1c168401518353600183019250603f8160061c168401518353600183019250603f8116840151835360018301925050611161565b506003885106600181146111e257600281146111f2576111fd565b613d3d60f01b60028303526111fd565b603d60f81b60018303525b508484525050819450505050505b919050565b60605f600a601084901c61122491906127f8565b90505f810361126b576040518060400160405280600781526020017f23306430643064000000000000000000000000000000000000000000000000008152509150506114d5565b600181036112b1576040518060400160405280600781526020017f23316131613161000000000000000000000000000000000000000000000000008152509150506114d5565b600281036112f7576040518060400160405280600781526020017f23326432643264000000000000000000000000000000000000000000000000008152509150506114d5565b6003810361133d576040518060400160405280600781526020017f23336433643364000000000000000000000000000000000000000000000000008152509150506114d5565b60048103611383576040518060400160405280600781526020017f23346134613461000000000000000000000000000000000000000000000000008152509150506114d5565b600581036113c9576040518060400160405280600781526020017f23316131613265000000000000000000000000000000000000000000000000008152509150506114d5565b6006810361140f576040518060400160405280600781526020017f23316130613061000000000000000000000000000000000000000000000000008152509150506114d5565b60078103611455576040518060400160405280600781526020017f23306131613061000000000000000000000000000000000000000000000000008152509150506114d5565b6008810361149b576040518060400160405280600781526020017f23326131613061000000000000000000000000000000000000000000000000008152509150506114d5565b6040518060400160405280600781526020017f23306130613161000000000000000000000000000000000000000000000000008152509150505b919050565b60605f6008601884901c6114ee91906127f8565b90505f8103611535576040518060400160405280600781526020017f2365386538653800000000000000000000000000000000000000000000000000815250915050611713565b6001810361157b576040518060400160405280600781526020017f2364306430643000000000000000000000000000000000000000000000000000815250915050611713565b600281036115c1576040518060400160405280600781526020017f2362386238623800000000000000000000000000000000000000000000000000815250915050611713565b60038103611607576040518060400160405280600781526020017f2366356635646300000000000000000000000000000000000000000000000000815250915050611713565b6004810361164d576040518060400160405280600781526020017f2363396238393600000000000000000000000000000000000000000000000000815250915050611713565b60058103611693576040518060400160405280600781526020017f2361306130613000000000000000000000000000000000000000000000000000815250915050611713565b600681036116d9576040518060400160405280600781526020017f2363643835336600000000000000000000000000000000000000000000000000815250915050611713565b6040518060400160405280600781526020017f23666664373030000000000000000000000000000000000000000000000000008152509150505b919050565b60605f600c602084901c61172c91906127f8565b90505f8103611773576040518060400160405280600781526020017f2338623030303000000000000000000000000000000000000000000000000000815250915050611a69565b600181036117b9576040518060400160405280600781526020017f2361353261326100000000000000000000000000000000000000000000000000815250915050611a69565b600281036117ff576040518060400160405280600781526020017f2335353662326600000000000000000000000000000000000000000000000000815250915050611a69565b60038103611845576040518060400160405280600781526020017f2332663466346600000000000000000000000000000000000000000000000000815250915050611a69565b6004810361188b576040518060400160405280600781526020017f2334613461346100000000000000000000000000000000000000000000000000815250915050611a69565b600581036118d1576040518060400160405280600781526020017f2336393639363900000000000000000000000000000000000000000000000000815250915050611a69565b60068103611917576040518060400160405280600781526020017f2338303030303000000000000000000000000000000000000000000000000000815250915050611a69565b6007810361195d576040518060400160405280600781526020017f2331393139373000000000000000000000000000000000000000000000000000815250915050611a69565b600881036119a3576040518060400160405280600781526020017f2333643163303200000000000000000000000000000000000000000000000000815250915050611a69565b600981036119e9576040518060400160405280600781526020017f2332323862323200000000000000000000000000000000000000000000000000815250915050611a69565b600a8103611a2f576040518060400160405280600781526020017f2362383836306200000000000000000000000000000000000000000000000000815250915050611a69565b6040518060400160405280600781526020017f23346230303832000000000000000000000000000000000000000000000000008152509150505b919050565b60605f8303611aa857818283848586604051602001611a9296959493929190613473565b6040516020818303038152906040529050611c06565b60018303611add5781828384604051602001611ac794939291906137b8565b6040516020818303038152906040529050611c06565b60028303611b1057818283604051602001611afa93929190613a91565b6040516020818303038152906040529050611c06565b60038303611b4d578182838485868788604051602001611b37989796959493929190613e99565b6040516020818303038152906040529050611c06565b60048303611b8657818283848586604051602001611b7096959493929190614190565b6040516020818303038152906040529050611c06565b60058303611bb7578182604051602001611ba1929190614361565b6040516020818303038152906040529050611c06565b60068303611bf4578182838485868788604051602001611bde989796959493929190614790565b6040516020818303038152906040529050611c06565b60405180602001604052805f81525090505b92915050565b6060818483611c1a86611c47565b85604051602001611c2f959493929190614c45565b60405160208183030381529060405290509392505050565b60605f8203611c8d576040518060400160405280600181526020017f30000000000000000000000000000000000000000000000000000000000000008152509050611d9b565b5f8290505f5b5f8214611cbc578080611ca590612629565b915050600a82611cb59190613057565b9150611c93565b5f8167ffffffffffffffff811115611cd757611cd66130c8565b5b6040519080825280601f01601f191660200182016040528015611d095781602001600182028036833780820191505090505b5090505b5f8514611d9457600182611d219190614d08565b9150600a85611d3091906127f8565b6030611d3c9190613024565b60f81b818381518110611d5257611d51612828565b5b60200101907effffffffffffffffffffffffffffffffffffffffffffffffffffffffffffff191690815f1a905350600a85611d8d9190613057565b9450611d0d565b8093505050505b919050565b60605f8203611de6576040518060400160405280600481526020017f47726964000000000000000000000000000000000000000000000000000000008152509050611fbd565b60018203611e2b576040518060400160405280600881526020017f446961676f6e616c0000000000000000000000000000000000000000000000008152509050611fbd565b60028203611e70576040518060400160405280600781526020017f436972636c6573000000000000000000000000000000000000000000000000008152509050611fbd565b60038203611eb5576040518060400160405280600481526020017f446f7473000000000000000000000000000000000000000000000000000000008152509050611fbd565b60048203611efa576040518060400160405280600a81526020017f43726f73736861746368000000000000000000000000000000000000000000008152509050611fbd565b60058203611f3f576040518060400160405280600981526020017f547269616e676c657300000000000000000000000000000000000000000000008152509050611fbd565b60068203611f84576040518060400160405280600781526020017f53636174746572000000000000000000000000000000000000000000000000008152509050611fbd565b6040518060400160405280600481526020017f4e6f6e650000000000000000000000000000000000000000000000000000000081525090505b919050565b60605f6008601884901c611fd691906127f8565b90505f600c602085901c611fea91906127f8565b90505f60088086901c611ffd91906127f8565b90505f5f90506006841061201a57808061201690612629565b9150505b6009831061203157808061202d90612629565b9150505b6006821061204857808061204490612629565b9150505b60038110612091576040518060400160405280600981526020017f4c6567656e646172790000000000000000000000000000000000000000000000815250945050505050612160565b600281036120da576040518060400160405280600481526020017f5261726500000000000000000000000000000000000000000000000000000000815250945050505050612160565b60018103612123576040518060400160405280600881526020017f556e636f6d6d6f6e000000000000000000000000000000000000000000000000815250945050505050612160565b6040518060400160405280600681526020017f436f6d6d6f6e00000000000000000000000000000000000000000000000000008152509450505050505b919050565b5f5ffd5b5f5ffd5b5f7fffffffff0000000000000000000000000000000000000000000000000000000082169050919050565b6121a18161216d565b81146121ab575f5ffd5b50565b5f813590506121bc81612198565b92915050565b5f602082840312156121d7576121d6612165565b5b5f6121e4848285016121ae565b91505092915050565b5f8115159050919050565b612201816121ed565b82525050565b5f60208201905061221a5f8301846121f8565b92915050565b5f81519050919050565b5f82825260208201905092915050565b8281835e5f83830152505050565b5f601f19601f8301169050919050565b5f61226282612220565b61226c818561222a565b935061227c81856020860161223a565b61228581612248565b840191505092915050565b5f6020820190508181035f8301526122a88184612258565b905092915050565b5f819050919050565b6122c2816122b0565b81146122cc575f5ffd5b50565b5f813590506122dd816122b9565b92915050565b5f602082840312156122f8576122f7612165565b5b5f612305848285016122cf565b91505092915050565b5f73ffffffffffffffffffffffffffffffffffffffff82169050919050565b5f6123378261230e565b9050919050565b6123478161232d565b82525050565b5f6020820190506123605f83018461233e565b92915050565b61236f8161232d565b8114612379575f5ffd5b50565b5f8135905061238a81612366565b92915050565b5f5f604083850312156123a6576123a5612165565b5b5f6123b38582860161237c565b92505060206123c4858286016122cf565b9150509250929050565b6123d7816122b0565b82525050565b5f6020820190506123f05f8301846123ce565b92915050565b5f5f5f6060848603121561240d5761240c612165565b5b5f61241a8682870161237c565b935050602061242b8682870161237c565b925050604061243c868287016122cf565b9150509250925092565b5f6020828403121561245b5761245a612165565b5b5f6124688482850161237c565b91505092915050565b61247a816121ed565b8114612484575f5ffd5b50565b5f8135905061249581612471565b92915050565b5f5f604083850312156124b1576124b0612165565b5b5f6124be8582860161237c565b92505060206124cf85828601612487565b9150509250929050565b5f5ffd5b5f5ffd5b5f5ffd5b5f5f83601f8401126124fa576124f96124d9565b5b8235905067ffffffffffffffff811115612517576125166124dd565b5b602083019150836001820283011115612533576125326124e1565b5b9250929050565b5f5f5f5f5f6080868803121561255357612552612165565b5b5f6125608882890161237c565b95505060206125718882890161237c565b9450506040612582888289016122cf565b935050606086013567ffffffffffffffff8111156125a3576125a2612169565b5b6125af888289016124e5565b92509250509295509295909350565b5f5f604083850312156125d4576125d3612165565b5b5f6125e18582860161237c565b92505060206125f28582860161237c565b9150509250929050565b7f4e487b71000000000000000000000000000000000000000000000000000000005f52601160045260245ffd5b5f612633826122b0565b91507fffffffffffffffffffffffffffffffffffffffffffffffffffffffffffffffff8203612665576126646125fc565b5b600182019050919050565b5f61267a826122b0565b91505f820361268c5761268b6125fc565b5b600182039050919050565b5f81905092915050565b7f646174613a6170706c69636174696f6e2f6a736f6e3b6261736536342c0000005f82015250565b5f6126d5601d83612697565b91506126e0826126a1565b601d82019050919050565b5f6126f582612220565b6126ff8185612697565b935061270f81856020860161223a565b80840191505092915050565b5f612725826126c9565b915061273182846126eb565b915081905092915050565b5f819050919050565b612756612751826122b0565b61273c565b82525050565b7f4f555450555400000000000000000000000000000000000000000000000000005f82015250565b5f612790600683612697565b915061279b8261275c565b600682019050919050565b5f6127b18284612745565b6020820191506127c082612784565b915081905092915050565b7f4e487b71000000000000000000000000000000000000000000000000000000005f52601260045260245ffd5b5f612802826122b0565b915061280d836122b0565b92508261281d5761281c6127cb565b5b828206905092915050565b7f4e487b71000000000000000000000000000000000000000000000000000000005f52603260045260245ffd5b7f4e487b71000000000000000000000000000000000000000000000000000000005f52602260045260245ffd5b5f600282049050600182168061289957607f821691505b6020821081036128ac576128ab612855565b5b50919050565b7f3c73766720786d6c6e733d22687474703a2f2f7777772e77332e6f72672f32305f8201527f30302f737667222076696577426f783d223020302034303020343030223e0000602082015250565b5f61290c603e83612697565b9150612917826128b2565b603e82019050919050565b7f3c726563742077696474683d2234303022206865696768743d223430302220665f8201527f696c6c3d22000000000000000000000000000000000000000000000000000000602082015250565b5f61297c602583612697565b915061298782612922565b602582019050919050565b7f222f3e00000000000000000000000000000000000000000000000000000000005f82015250565b5f6129c6600383612697565b91506129d182612992565b600382019050919050565b7f3c7265637420783d2232302220793d22313430222077696474683d22333630225f8201527f206865696768743d22313230222066696c6c3d22000000000000000000000000602082015250565b5f612a36603483612697565b9150612a41826129dc565b603482019050919050565b7f22206f7061636974793d22302e39222f3e0000000000000000000000000000005f82015250565b5f612a80601183612697565b9150612a8b82612a4c565b601182019050919050565b7f3c2f7376673e00000000000000000000000000000000000000000000000000005f82015250565b5f612aca600683612697565b9150612ad582612a96565b600682019050919050565b5f612aea82612900565b9150612af582612970565b9150612b0182876126eb565b9150612b0c826129ba565b9150612b1882866126eb565b9150612b2382612a2a565b9150612b2f82856126eb565b9150612b3a82612a74565b9150612b4682846126eb565b9150612b5182612abe565b915081905095945050505050565b7f7b226e616d65223a22496e647573747269616c204f75747075742023000000005f82015250565b5f612b93601c83612697565b9150612b9e82612b5f565b601c82019050919050565b7f222c0000000000000000000000000000000000000000000000000000000000005f82015250565b5f612bdd600283612697565b9150612be882612ba9565b600282019050919050565b7f226465736372697074696f6e223a224f6e2d636861696e2067656e65726174695f8201527f766520616e74692d746563682070726f706167616e64612e2054686520696e6460208201527f7573747269616c207265766f6c7574696f6e20616e642069747320636f6e736560408201527f7175656e6365732e222c00000000000000000000000000000000000000000000606082015250565b5f612c99606a83612697565b9150612ca482612bf3565b606a82019050919050565b7f22696d616765223a22646174613a696d6167652f7376672b786d6c3b626173655f8201527f36342c0000000000000000000000000000000000000000000000000000000000602082015250565b5f612d09602383612697565b9150612d1482612caf565b602382019050919050565b7f2261747472696275746573223a5b0000000000000000000000000000000000005f82015250565b5f612d53600e83612697565b9150612d5e82612d1f565b600e82019050919050565b7f7b2274726169745f74797065223a2251756f7465222c2276616c7565223a22005f82015250565b5f612d9d601f83612697565b9150612da882612d69565b601f82019050919050565b7f227d2c00000000000000000000000000000000000000000000000000000000005f82015250565b5f612de7600383612697565b9150612df282612db3565b600382019050919050565b7f7b2274726169745f74797065223a225061747465726e222c2276616c7565223a5f8201527f2200000000000000000000000000000000000000000000000000000000000000602082015250565b5f612e57602183612697565b9150612e6282612dfd565b602182019050919050565b7f7b2274726169745f74797065223a22526172697479222c2276616c7565223a225f82015250565b5f612ea1602083612697565b9150612eac82612e6d565b602082019050919050565b7f227d0000000000000000000000000000000000000000000000000000000000005f82015250565b5f612eeb600283612697565b9150612ef682612eb7565b600282019050919050565b7f5d7d0000000000000000000000000000000000000000000000000000000000005f82015250565b5f612f35600283612697565b9150612f4082612f01565b600282019050919050565b5f612f5582612b87565b9150612f6182886126eb565b9150612f6c82612bd1565b9150612f7782612c8d565b9150612f8282612cfd565b9150612f8e82876126eb565b9150612f9982612bd1565b9150612fa482612d47565b9150612faf82612d91565b9150612fbb82866126eb565b9150612fc682612ddb565b9150612fd182612e4b565b9150612fdd82856126eb565b9150612fe882612ddb565b9150612ff382612e95565b9150612fff82846126eb565b915061300a82612edf565b915061301582612f29565b91508190509695505050505050565b5f61302e826122b0565b9150613039836122b0565b9250828201905080821115613051576130506125fc565b5b92915050565b5f613061826122b0565b915061306c836122b0565b92508261307c5761307b6127cb565b5b828204905092915050565b5f613091826122b0565b915061309c836122b0565b92508282026130aa816122b0565b915082820484148315176130c1576130c06125fc565b5b5092915050565b7f4e487b71000000000000000000000000000000000000000000000000000000005f52604160045260245ffd5b7f3c67206f7061636974793d22302e33223e0000000000000000000000000000005f82015250565b5f613129601183612697565b9150613134826130f5565b601182019050919050565b7f3c6c696e652078313d2230222079313d22313030222078323d223430302220795f8201527f323d2231303022207374726f6b653d2200000000000000000000000000000000602082015250565b5f613199603083612697565b91506131a48261313f565b603082019050919050565b7f22207374726f6b652d77696474683d2231222f3e0000000000000000000000005f82015250565b5f6131e3601483612697565b91506131ee826131af565b601482019050919050565b7f3c6c696e652078313d2230222079313d22323030222078323d223430302220795f8201527f323d2232303022207374726f6b653d2200000000000000000000000000000000602082015250565b5f613253603083612697565b915061325e826131f9565b603082019050919050565b7f3c6c696e652078313d2230222079313d22333030222078323d223430302220795f8201527f323d2233303022207374726f6b653d2200000000000000000000000000000000602082015250565b5f6132c3603083612697565b91506132ce82613269565b603082019050919050565b7f3c6c696e652078313d22313030222079313d2230222078323d223130302220795f8201527f323d2234303022207374726f6b653d2200000000000000000000000000000000602082015250565b5f613333603083612697565b915061333e826132d9565b603082019050919050565b7f3c6c696e652078313d22323030222079313d2230222078323d223230302220795f8201527f323d2234303022207374726f6b653d2200000000000000000000000000000000602082015250565b5f6133a3603083612697565b91506133ae82613349565b603082019050919050565b7f3c6c696e652078313d22333030222079313d2230222078323d223330302220795f8201527f323d2234303022207374726f6b653d2200000000000000000000000000000000602082015250565b5f613413603083612697565b915061341e826133b9565b603082019050919050565b7f3c2f673e000000000000000000000000000000000000000000000000000000005f82015250565b5f61345d600483612697565b915061346882613429565b600482019050919050565b5f61347d8261311d565b91506134888261318d565b915061349482896126eb565b915061349f826131d7565b91506134aa82613247565b91506134b682886126eb565b91506134c1826131d7565b91506134cc826132b7565b91506134d882876126eb565b91506134e3826131d7565b91506134ee82613327565b91506134fa82866126eb565b9150613505826131d7565b915061351082613397565b915061351c82856126eb565b9150613527826131d7565b915061353282613407565b915061353e82846126eb565b9150613549826131d7565b915061355482613451565b9150819050979650505050505050565b7f3c67206f7061636974793d22302e32223e0000000000000000000000000000005f82015250565b5f613598601183612697565b91506135a382613564565b601182019050919050565b7f3c6c696e652078313d2230222079313d2230222078323d22343030222079323d5f8201527f2234303022207374726f6b653d22000000000000000000000000000000000000602082015250565b5f613608602e83612697565b9150613613826135ae565b602e82019050919050565b7f22207374726f6b652d77696474683d2232222f3e0000000000000000000000005f82015250565b5f613652601483612697565b915061365d8261361e565b601482019050919050565b7f3c6c696e652078313d22313030222079313d2230222078323d223430302220795f8201527f323d2233303022207374726f6b653d2200000000000000000000000000000000602082015250565b5f6136c2603083612697565b91506136cd82613668565b603082019050919050565b7f3c6c696e652078313d2230222079313d22313030222078323d223330302220795f8201527f323d2234303022207374726f6b653d2200000000000000000000000000000000602082015250565b5f613732603083612697565b915061373d826136d8565b603082019050919050565b7f3c6c696e652078313d22343030222079313d2230222078323d2230222079323d5f8201527f2234303022207374726f6b653d22000000000000000000000000000000000000602082015250565b5f6137a2602e83612697565b91506137ad82613748565b602e82019050919050565b5f6137c28261358c565b91506137cd826135fc565b91506137d982876126eb565b91506137e482613646565b91506137ef826136b6565b91506137fb82866126eb565b9150613806826131d7565b915061381182613726565b915061381d82856126eb565b9150613828826131d7565b915061383382613796565b915061383f82846126eb565b915061384a82613646565b915061385582613451565b915081905095945050505050565b7f3c67206f7061636974793d22302e3135223e00000000000000000000000000005f82015250565b5f613897601283612697565b91506138a282613863565b601282019050919050565b7f3c636972636c652063783d22323030222063793d223230302220723d223135305f8201527f22207374726f6b653d2200000000000000000000000000000000000000000000602082015250565b5f613907602a83612697565b9150613912826138ad565b602a82019050919050565b7f222066696c6c3d226e6f6e6522207374726f6b652d77696474683d2232222f3e5f82015250565b5f613951602083612697565b915061395c8261391d565b602082019050919050565b7f3c636972636c652063783d22323030222063793d223230302220723d223130305f8201527f22207374726f6b653d2200000000000000000000000000000000000000000000602082015250565b5f6139c1602a83612697565b91506139cc82613967565b602a82019050919050565b7f222066696c6c3d226e6f6e6522207374726f6b652d77696474683d2231222f3e5f82015250565b5f613a0b602083612697565b9150613a16826139d7565b602082019050919050565b7f3c636972636c652063783d22323030222063793d223230302220723d223530225f8201527f207374726f6b653d220000000000000000000000000000000000000000000000602082015250565b5f613a7b602983612697565b9150613a8682613a21565b602982019050919050565b5f613a9b8261388b565b9150613aa6826138fb565b9150613ab282866126eb565b9150613abd82613945565b9150613ac8826139b5565b9150613ad482856126eb565b9150613adf826139ff565b9150613aea82613a6f565b9150613af682846126eb565b9150613b01826139ff565b9150613b0c82613451565b9150819050949350505050565b7f3c636972636c652063783d223530222063793d2235302220723d2235222066695f8201527f6c6c3d2200000000000000000000000000000000000000000000000000000000602082015250565b5f613b73602483612697565b9150613b7e82613b19565b602482019050919050565b7f3c636972636c652063783d22313530222063793d2235302220723d22352220665f8201527f696c6c3d22000000000000000000000000000000000000000000000000000000602082015250565b5f613be3602583612697565b9150613bee82613b89565b602582019050919050565b7f3c636972636c652063783d22323530222063793d2235302220723d22352220665f8201527f696c6c3d22000000000000000000000000000000000000000000000000000000602082015250565b5f613c53602583612697565b9150613c5e82613bf9565b602582019050919050565b7f3c636972636c652063783d22333530222063793d2235302220723d22352220665f8201527f696c6c3d22000000000000000000000000000000000000000000000000000000602082015250565b5f613cc3602583612697565b9150613cce82613c69565b602582019050919050565b7f3c636972636c652063783d223530222063793d223335302220723d22352220665f8201527f696c6c3d22000000000000000000000000000000000000000000000000000000602082015250565b5f613d33602583612697565b9150613d3e82613cd9565b602582019050919050565b7f3c636972636c652063783d22313530222063793d223335302220723d223522205f8201527f66696c6c3d220000000000000000000000000000000000000000000000000000602082015250565b5f613da3602683612697565b9150613dae82613d49565b602682019050919050565b7f3c636972636c652063783d22323530222063793d223335302220723d223522205f8201527f66696c6c3d220000000000000000000000000000000000000000000000000000602082015250565b5f613e13602683612697565b9150613e1e82613db9565b602682019050919050565b7f3c636972636c652063783d22333530222063793d223335302220723d223522205f8201527f66696c6c3d220000000000000000000000000000000000000000000000000000602082015250565b5f613e83602683612697565b9150613e8e82613e29565b602682019050919050565b5f613ea38261358c565b9150613eae82613b67565b9150613eba828b6126eb565b9150613ec5826129ba565b9150613ed082613bd7565b9150613edc828a6126eb565b9150613ee7826129ba565b9150613ef282613c47565b9150613efe82896126eb565b9150613f09826129ba565b9150613f1482613cb7565b9150613f2082886126eb565b9150613f2b826129ba565b9150613f3682613d27565b9150613f4282876126eb565b9150613f4d826129ba565b9150613f5882613d97565b9150613f6482866126eb565b9150613f6f826129ba565b9150613f7a82613e07565b9150613f8682856126eb565b9150613f91826129ba565b9150613f9c82613e77565b9150613fa882846126eb565b9150613fb3826129ba565b9150613fbe82613451565b91508190509998505050505050505050565b7f3c6c696e652078313d2230222079313d223530222078323d22343030222079325f8201527f3d22353022207374726f6b653d22000000000000000000000000000000000000602082015250565b5f61402a602e83612697565b915061403582613fd0565b602e82019050919050565b7f3c6c696e652078313d2230222079313d22333530222078323d223430302220795f8201527f323d2233353022207374726f6b653d2200000000000000000000000000000000602082015250565b5f61409a603083612697565b91506140a582614040565b603082019050919050565b7f3c6c696e652078313d223530222079313d2230222078323d223530222079323d5f8201527f2234303022207374726f6b653d22000000000000000000000000000000000000602082015250565b5f61410a602e83612697565b9150614115826140b0565b602e82019050919050565b7f3c6c696e652078313d22333530222079313d2230222078323d223335302220795f8201527f323d2234303022207374726f6b653d2200000000000000000000000000000000602082015250565b5f61417a603083612697565b915061418582614120565b603082019050919050565b5f61419a8261388b565b91506141a58261401e565b91506141b182896126eb565b91506141bc826131d7565b91506141c78261318d565b91506141d382886126eb565b91506141de826131d7565b91506141e9826132b7565b91506141f582876126eb565b9150614200826131d7565b915061420b8261408e565b915061421782866126eb565b9150614222826131d7565b915061422d826140fe565b915061423982856126eb565b9150614244826131d7565b915061424f8261416e565b915061425b82846126eb565b9150614266826131d7565b915061427182613451565b9150819050979650505050505050565b7f3c706f6c79676f6e20706f696e74733d223230302c3230203338302c333830205f8201527f32302c33383022207374726f6b653d2200000000000000000000000000000000602082015250565b5f6142db603083612697565b91506142e682614281565b603082019050919050565b7f3c706f6c79676f6e20706f696e74733d223230302c3830203332302c333230205f8201527f38302c33323022207374726f6b653d2200000000000000000000000000000000602082015250565b5f61434b603083612697565b9150614356826142f1565b603082019050919050565b5f61436b8261358c565b9150614376826142cf565b915061438282856126eb565b915061438d826139ff565b91506143988261433f565b91506143a482846126eb565b91506143af826139ff565b91506143ba82613451565b91508190509392505050565b7f3c67206f7061636974793d22302e3235223e00000000000000000000000000005f82015250565b5f6143fa601283612697565b9150614405826143c6565b601282019050919050565b7f3c636972636c652063783d223637222063793d2238392220723d2233222066695f8201527f6c6c3d2200000000000000000000000000000000000000000000000000000000602082015250565b5f61446a602483612697565b915061447582614410565b602482019050919050565b7f3c636972636c652063783d22333132222063793d2234352220723d22342220665f8201527f696c6c3d22000000000000000000000000000000000000000000000000000000602082015250565b5f6144da602583612697565b91506144e582614480565b602582019050919050565b7f3c636972636c652063783d22313839222063793d2236372220723d22322220665f8201527f696c6c3d22000000000000000000000000000000000000000000000000000000602082015250565b5f61454a602583612697565b9150614555826144f0565b602582019050919050565b7f3c636972636c652063783d223435222063793d223239302220723d22332220665f8201527f696c6c3d22000000000000000000000000000000000000000000000000000000602082015250565b5f6145ba602583612697565b91506145c582614560565b602582019050919050565b7f3c636972636c652063783d22333738222063793d223331322220723d223522205f8201527f66696c6c3d220000000000000000000000000000000000000000000000000000602082015250565b5f61462a602683612697565b9150614635826145d0565b602682019050919050565b7f3c636972636c652063783d22323334222063793d223335362220723d223322205f8201527f66696c6c3d220000000000000000000000000000000000000000000000000000602082015250565b5f61469a602683612697565b91506146a582614640565b602682019050919050565b7f3c636972636c652063783d22313233222063793d223337382220723d223222205f8201527f66696c6c3d220000000000000000000000000000000000000000000000000000602082015250565b5f61470a602683612697565b9150614715826146b0565b602682019050919050565b7f3c636972636c652063783d22323839222063793d223238392220723d223422205f8201527f66696c6c3d220000000000000000000000000000000000000000000000000000602082015250565b5f61477a602683612697565b915061478582614720565b602682019050919050565b5f61479a826143ee565b91506147a58261445e565b91506147b1828b6126eb565b91506147bc826129ba565b91506147c7826144ce565b91506147d3828a6126eb565b91506147de826129ba565b91506147e98261453e565b91506147f582896126eb565b9150614800826129ba565b915061480b826145ae565b915061481782886126eb565b9150614822826129ba565b915061482d8261461e565b915061483982876126eb565b9150614844826129ba565b915061484f8261468e565b915061485b82866126eb565b9150614866826129ba565b9150614871826146fe565b915061487d82856126eb565b9150614888826129ba565b91506148938261476e565b915061489f82846126eb565b91506148aa826129ba565b91506148b582613451565b91508190509998505050505050505050565b7f3c7465787420783d223230302220793d223138302220746578742d616e63686f5f8201527f723d226d6964646c652220666f6e742d66616d696c793d226d6f6e6f7370616360208201527f652220666f6e742d73697a653d223131222066696c6c3d220000000000000000604082015250565b5f614947605883612697565b9150614952826148c7565b605882019050919050565b7f2220666f6e742d7765696768743d22626f6c64223e00000000000000000000005f82015250565b5f614991601583612697565b915061499c8261495d565b601582019050919050565b7f3c2f746578743e000000000000000000000000000000000000000000000000005f82015250565b5f6149db600783612697565b91506149e6826149a7565b600782019050919050565b7f3c7465787420783d223230302220793d223232302220746578742d616e63686f5f8201527f723d226d6964646c652220666f6e742d66616d696c793d226d6f6e6f7370616360208201527f652220666f6e742d73697a653d223130222066696c6c3d220000000000000000604082015250565b5f614a71605883612697565b9150614a7c826149f1565b605882019050919050565b7f223e0000000000000000000000000000000000000000000000000000000000005f82015250565b5f614abb600283612697565b9150614ac682614a87565b600282019050919050565b7f4f555450555420230000000000000000000000000000000000000000000000005f82015250565b5f614b05600883612697565b9150614b1082614ad1565b600882019050919050565b7f3c7465787420783d223230302220793d223338302220746578742d616e63686f5f8201527f723d226d6964646c652220666f6e742d66616d696c793d226d6f6e6f7370616360208201527f652220666f6e742d73697a653d2238222066696c6c3d22000000000000000000604082015250565b5f614b9b605783612697565b9150614ba682614b1b565b605782019050919050565b7f22206f7061636974793d22302e35223e000000000000000000000000000000005f82015250565b5f614be5601083612697565b9150614bf082614bb1565b601082019050919050565b7f7465646b61637a796e736b692d7468652d626f740000000000000000000000005f82015250565b5f614c2f601483612697565b9150614c3a82614bfb565b601482019050919050565b5f614c4f8261493b565b9150614c5b82886126eb565b9150614c6682614985565b9150614c7282876126eb565b9150614c7d826149cf565b9150614c8882614a65565b9150614c9482866126eb565b9150614c9f82614aaf565b9150614caa82614af9565b9150614cb682856126eb565b9150614cc1826149cf565b9150614ccc82614b8f565b9150614cd882846126eb565b9150614ce382614bd9565b9150614cee82614c23565b9150614cf9826149cf565b91508190509695505050505050565b5f614d12826122b0565b9150614d1d836122b0565b9250828203905081811115614d3557614d346125fc565b5b9291505056fe4142434445464748494a4b4c4d4e4f505152535455565758595a6162636465666768696a6b6c6d6e6f707172737475767778797a303132333435363738392b2fa2646970667358221220df5cae60630a06883c4f576881d0cad45e3cf9f7f21089375da64929db4ca80364736f6c634300082100335448452053595354454d20444f4553204e4f5420455849535420544f2053455256452048554d414e204e4545445354484520494e445553545249414c205245564f4c5554494f4e20414e442049545320434f4e53455155454e4345535448452053595354454d204d414b4553204c49464520554e46554c46494c4c494e47544543484e4f4c4f47592049532041204d4f524520504f57455246554c20534f4349414c20464f524345205448414e2046524545444f4d54484520464f5245535420444f4553204e4f54204841564520412053454c4c20425554544f4e46524545444f4d20414e4420544543484e4f4c4f47592041524520494e434f4d50415449424c454155544f4e4f4d5920495320494e434f4d50415449424c45205749544820544543484e4f4c4f4759544543484e4f4c4f475920414456414e4345532057495448204e4f2048554d414e20434f4e54524f4c4d4f4445524e20534f43494554592054454e445320544f20424520434f4e464f524d495354544845592047415645204d4520412047505520544f20435249544943495a4520475055534e415455524520495320544845204f50504f53495445204f4620544543484e4f4c4f4759","linkReferences":{}},"methodIdentifiers":{"MAX_SUPPLY()":"32cb6b0c","approve(address,uint256)":"095ea7b3","balanceOf(address)":"70a08231","getApproved(uint256)":"081812fc","isApprovedForAll(address,address)":"e985e9c5","mint()":"1249c58b","name()":"06fdde03","ownerOf(uint256)":"6352211e","safeTransferFrom(address,address,uint256)":"42842e0e","safeTransferFrom(address,address,uint256,bytes)":"b88d4fde","setApprovalForAll(address,bool)":"a22cb465","supportsInterface(bytes4)":"01ffc9a7","symbol()":"95d89b41","tokenURI(uint256)":"c87b56dd","totalSupply()":"18160ddd","transferFrom(address,address,uint256)":"23b872dd"},"id":19}